:020000040800F2
:10000000780A0020C9010008CF150008D1110008A6
:10001000CD150008CF020008DF190008000000001D
:10002000000000000000000000000000371700087A
:10003000D102000800000000351700083917000839
:10004000E3010008E3010008E3010008E301000800
:10005000E3010008E3010008E3010008E3010008F0
:10006000E3010008E3010008E3010008E3010008E0
:10007000E3010008E3010008E3010008E3010008D0
:10008000E3010008E3010008E3010008E3010008C0
:10009000E3010008E3010008E3010008E3010008B0
:1000A000E3010008E3010008E3010008E3010008A0
:1000B000E3010008E3010008E3010008E301000890
:1000C000E3010008E3010008E3010008E301000880
:1000D000E3010008E3010008E3010008E301000870
:1000E000E3010008E3010008E301000800F002F862
:1000F00000F05AF80AA090E8000C82448344AAF168
:100100000107DA4501D100F04FF8AFF2090EBAE865
:100110000F0013F0010F18BFFB1A43F0010318473B
:10012000601C0000801C00000A444FF0000C10F816
:10013000013B13F0070408BF10F8014B1D1108BF65
:1001400010F8015B641E05D010F8016B641E01F805
:10015000016BF9D113F0080F1EBF10F8014BAD1C55
:100160000C1B09D16D1E58BF01F801CBFAD505E073
:1001700014F8016B01F8016B6D1EF9D59142D6D3CD
:10018000704700000023002400250026103A28BFF5
:1001900078C1FBD8520728BF30C148BF0B607047F9
:1001A0001FB51FBD10B510BD00F058F81146FFF780
:1001B000F7FF01F025FC00F076F803B4FFF7F2FF3B
:1001C00003BC00F07DF8000009488047094800475B
:1001D000FEE7FEE7FEE7FEE7FEE7FEE7FEE7FEE7F7
:1001E000FEE7FEE704480549054A064B7047000054
:1001F0009B170008ED00000878040020780A002012
:1002000078060020780600204FF0000200B5134663
:1002100094469646203922BFA0E80C50A0E80C5026
:10022000B1F12001BFF4F7AF090728BFA0E80C50D7
:1002300048BF0CC05DF804EB890028BF40F8042BD0
:1002400008BF704748BF20F8022B11F0804F18BF3D
:1002500000F8012B7047704770477047754600F0F3
:100260002BF8AE4605006946534620F00700854648
:1002700018B020B5FFF7B6FFBDE820404FF00006EC
:100280004FF000074FF000084FF0000B21F007017E
:10029000AC46ACE8C009ACE8C009ACE8C009ACE8C1
:1002A000C0098D46704710B50446AFF30080204664
:1002B000BDE81040FFF781BF0048704714040020DC
:1002C00001491820ABBEFEE7260002007047FEE79A
:1002D0007047000070B5044600F004F90546601C44
:1002E00002D004480078044400F0FCF8401BA0420F
:1002F000FAD370BD000000202DE9F84FDFF8B89167
:100300000024A9F1040B23460F2709F1040AABF1DD
:10031000040EC9E00125A5402A40AA427DD1674EBE
:10032000D1F804C0ACEB0608B44532D014DCBCF103
:10033000030F3AD009DCBCF1000F2AD0BCF1010F49
:100340001CD0BCF1020F31D11DE0BCF1110F17D050
:10035000BCF1120F2AD119E0B8F5881F19D006DCBC
:10036000B8F5803F15D0B8F5801F1FD111E0B8F562
:10037000001F0ED0B8F5041F18D10AE0CB6815E0B5
:10038000CB681B1D12E0CB6808330FE0CB680C3341
:100390000CE08B682BB1012B4FF0080303D04561B3
:1003A00004E0042302E0056100E00023FF2A01D8F5
:1003B000064601E000F104064FEA840501D9A5F1E3
:1003C0002005D6F8008007FA05FC28EA0C0803FA95
:1003D00005F548EA0508C6F800804D68ED0062D5CD
:1003E000374DAE6946F00106AE61AD6924F00306F3
:1003F00005F001050095334D06EB050CDCF80850BF
:10040000A607360F07FA06F825EA0805DFF8B880D0
:10041000404503D14FF0000817E044E0DFF8AC801E
:10042000404502D14FF001080FE0DFF8A4804045BD
:1004300002D14FF0020808E0DFF89880404502D171
:100440004FF0030801E04FF0040808FA06F848EA04
:100450000508CCF808804D68D9F80060ED024D46DB
:1004600001D5164300E096432E604D68DAF800602F
:10047000AD02554601D5164300E096432E604D6807
:10048000DBF80060AD035D4601D5164300E09643FE
:100490002E604D68DEF80060ED03754601D5164309
:1004A00000E096432E60641C0D682A46E5407FF408
:1004B00031AFBDE8F88F00000804014000001110C2
:1004C000001002400000014000080140000C014003
:1004D00000100140001401400AB101617047090495
:1004E000FBE7000001488068704700000000002022
:1004F00070B5040025D094F83D00002520B984F89B
:100500003C50204600F050F9242084F83D0020683B
:10051000016821F0010101602068016841F4004197
:1005200001602068016821F40041016000F08AFA4E
:100530004D4A6168914201D84C4900E04C498842DB
:1005400001D2012070BD4B492368B0FBF1F15E6818
:1005500026F03F060E435E606368934206D94FF46F
:10056000967359434FF47A73B1FBF3F12368491C36
:100570001E6A26F03F06314319626168914210D825
:100580004900401EB0FBF1F2521CC2F30B02042AD8
:1005900001D2042022E0B0FBF1F0401CC0F30B00BC
:1005A0001CE0A268F2B301EBC10303EB0116431E8A
:1005B000B3FBF6F35B1C43F480431B0549D092B3B5
:1005C00001EBC10202EB0111401EB0FBF1F0401C37
:1005D000C0F30B0040F4804040F400402168CA6939
:1005E0004CF6FF739A431043C861D4E907100143E6
:1005F0002068026822F0C00211430160D4E90301BF
:1006000001432068826848F2FF339A4311438160B6
:10061000D4E9050108432168CA6822F0FF021043AB
:10062000C86001E00EE016E02068016841F00101B9
:1006300001602564202084F83D00256384F83E5045
:10064000002070BD01EB4106431EB3FBF6F35B1CBB
:10065000B3E70120C2E701EB4101401EB0FBF1F01E
:10066000401CC0F30B00B7E7A086010080841E0089
:1006700000093D0040420F002DE9FF4F83B09A462C
:10068000DDE9119793460446DDF84080FFF72AFF25
:10069000054694F83D0020287FD1192301224049C6
:1006A0002046009500F02CFE002876D194F83C00FE
:1006B000012872D0012084F83C0020680168C90735
:1006C00003D1016841F0010101602068016821F453
:1006D00000610160212084F83D00402084F83E0044
:1006E00000262664C4F82480A4F82A90608D208512
:1006F0002C48E062CDE9007553465A4620460499DD
:1007000000F07EFD70B930E02A463946204600F000
:100710009DFE58B1206C042804D12068016841F482
:1007200000710160012007B0BDE8F08F606A2168A8
:1007300000780861606A401C6062218D491E89B2A0
:100740002185628D521E628522685369DB435B07F7
:100750000BD469B100781061606A401C6062208D22
:10076000401E2085608D401E6085208D0028CBD1E5
:100770002A463946204600F097FD0028CAD154F891
:100780003D0B016841F400710160202004F81E094E
:10079000E67766770020C6E7FFE70220C3E70000A0
:1007A000020010000000FFFF10B586B0002100918C
:1007B00001910291039100680F4988421AD10F4CB0
:1007C000A06940F00800A061A069694600F0080037
:1007D0000490C0200090122001900320039008484C
:1007E000FFF78AFDE06940F40010E061E06900F481
:1007F0000010049006B010BD0054004000100240EC
:10080000000C014002488168027811448160704701
:1008100000000020074810B5016841F01001016098
:10082000032000F067F80F2000F006F800F024F82D
:10083000002010BD0020024070B50D4D04464FF45D
:100840007A712878B1FBF0F00A490968B1FBF0F041
:1008500000F0BEFA48B9102C07D200222146501EE3
:1008600000F028F800206C6070BD012070BD000011
:10087000000000200C0000200C4808B5816941F000
:1008800001018161816901F001010091C16941F0BB
:100890008051C161C06900F08050009004484168F7
:1008A00021F0E06141F00071416008BD001002409C
:1008B00000000140F0B40E4B1B680C46C3F302234A
:1008C000C3F10705042D00D90425191D072901D2FC
:1008D000002300E0DB1E012606FA05F1491E214037
:1008E00099409E40761E16403143F0BC01F078B826
:1008F0000CED00E0064900F0070208684FF6FF0320
:10090000184040EA0220034A104308607047000084
:100910000CED00E00000FA052DE9F0470F46050058
:1009200061D0434E306800F00700B84209D2306809
:1009300020F0070038433060306800F00700B8420C
:1009400051D128683B4C810712D5400703D5606818
:1009500040F4E06060602878000703D5606840F4E8
:10096000605060606068A96820F0F0000843606033
:100970002878C00728D06868012810D0216802288C
:1009800010D0890700292EDA616821F003010143A4
:100990006160FFF7A7FD804641F288390DE02168CC
:1009A0008903EFE78901EDE7FFF79CFDA0EB080164
:1009B000494502D90320BDE8F0876068696800F006
:1009C0000C00B0EB810FEFD1306800F00700B842A7
:1009D0000BD9306820F0070038433060306800F0F1
:1009E0000700B84201D00120E5E72878400705D587
:1009F0006068E96820F4E0600843606028780007D8
:100A000006D56068296920F4605040EAC100606042
:100A100000F028F86168084AC1F30311515CC8402E
:100A20000649086006480068FFF706FF0020C2E795
:100A30000020024000100240A61A00080C0000200E
:100A4000040000200448054900684968044AC1F3CD
:100A50000221515CC84070470C0000200010024089
:100A6000B61A00080E4A51680E4801F00C03042B18
:100A700011D0082B0FD10C48C1F38343C903C05CCC
:100A80000AD55168084AC1F34041921E515C054A9B
:100A90005043B0FBF1F070470449484370470000F1
:100AA0000010024000127A00961A000800093D006A
:100AB0002DE9F84F040070D02078C04DC00749D010
:100AC0006868C0F38100012807D06868C0F381001E
:100AD000022809D16868C00306D52868800339D583
:100AE00060680028E7D035E06068B0F5803F0BD043
:100AF00010B1B0F5A02F11D0286820F48030286004
:100B0000286820F4802002E0286840F480302860C3
:100B1000606890B1FFF7E6FC06460AE0286840F4FA
:100B200080202860F0E700BFFFF7DCFC801B642812
:100B300073D828688003F7D50CE0FFF7D3FC06468E
:100B400005E000BFFFF7CEFC801B6428F0D82868C2
:100B50008003F7D420789A4E80074FF001094FF0B8
:100B6000000839D5686810F00C0F07D06868C0F32A
:100B70008100022809D16868C00306D4286880076C
:100B800014D52069012808D110E02069B0B1C6F859
:100B90000090FFF7A7FC074605E00AE1FFF7A2FC7B
:100BA000C01B0228C4D828688007F7D52868616967
:100BB00020F0F80040EAC10028600DE0C6F800808F
:100BC000FFF790FC074604E0FFF78CFCC01B0228EF
:100BD00023D828688007F7D4207800072CD57948D7
:100BE000A169D9B1C0F80090FFF77CFC074604E08A
:100BF000FFF778FCC01B02280FD8686A8007F7D57A
:100C000071484FF4FA510068B0FBF1F0009000BF5A
:100C10000098411E0091FAD20EE080E0C0F80080FA
:100C2000FFF760FC074604E0FFF75CFCC01B0228EE
:100C300075D8686A8007F7D42078400760D5E869DE
:100C40000027C00008D4E86940F08050E861E869F6
:100C5000012700F0805000905C480168C90513D45A
:100C60000168834641F480710160FFF73BFC8246D6
:100C700006E000BFFFF736FCA0EB0A0064284ED860
:100C8000DBF80000C005F5D5E06801280AD008B1FE
:100C9000052813D0286A20F001002862286A20F075
:100CA000040002E0286A40F001002862E06841F296
:100CB000883B98B1FFF716FC82460BE0286A40F0AB
:100CC00004002862EEE700BFFFF70CFCA0EB0A016E
:100CD00059455AD8286A8007F6D50CE0FFF702FC80
:100CE000824605E0FFF7FEFBA0EB0A0159454CD810
:100CF000286A8007F6D41FB1E86920F08050E861C7
:100D0000E06988B36968C1F38101022944D00228EF
:100D1000C6F8608004D0FFF7E5FB044638E034E015
:100D2000FFF7E0FB074604E0FFF7DCFBC01B0228EF
:100D30002BD828688001F7D4206AB0F5803F05D110
:100D40006868A16820F4003008436860D4E90801AD
:100D50000843696821F4741108436860C6F860901C
:100D6000FFF7C0FB044606E025E000BFFFF7BAFB33
:100D7000001B022809D828688001F7D51BE000BFB6
:100D8000FFF7B0FB001B022802D90320BDE8F88F53
:100D900028688001F4D40EE00128F7D06868226A40
:100DA00000F48031914204D1616A00F470108842ED
:100DB00001D00120EAE70020E8E70000001002402F
:100DC00000004242800442420C00002000700040BB
:100DD00010B5401EB0F1807F01D3012010BD4FF04F
:100DE000E02460610F21601700F0FAFD0020A0618F
:100DF00007202061002010BD70B590F83C20012A2A
:100E000026D0012480F83C40022280F83D2003686F
:100E10005A689D6822F070060A6832435A600D4B8A
:100E200002689A4208D0B2F1804F05D00A4B9A422C
:100E300002D00A4B9A4204D1496825F08003194335
:100E4000916080F83D40002180F83C10084670BD5C
:100E5000022070BD002C014000040040000800404A
:100E600010B5040003D094F83D0010B107E0012054
:100E700010BD002084F83C00204600F01FF802203E
:100E800084F83D00211D206800F088FC012084F8D2
:100E9000460084F83E0084F83F0084F8400084F85F
:100EA000410084F8420084F8430084F8440084F848
:100EB000450084F83D00002010BD000008B5006822
:100EC0000649884208D10648C16941F00401C16160
:100ED000C06900F00400009008BD00000008004058
:100EE0000010024070B5044690F83C00002501282F
:100EF00017D0012684F83C60022084F83D00206869
:100F0000826822F0770222F47F42826008685028CB
:100F100038D00DDC20284FD005DC90B3102811D13B
:100F20004AE0022070BD302846D040280AD13BE07C
:100F300060282FD070280DD0B0F5805F03D0B0F5B9
:100F4000005F12D0012584F83D60002084F83C0049
:100F5000284670BDCB68D1E90121206800F067FC0C
:100F60002068816841F0770109E0CB68D1E901216F
:100F7000206800F05CFC2068816841F48041816059
:100F8000E1E719E0CA684968206800F005FD5021D2
:100F9000206806E0CA684968206800F00EFD6021FC
:100FA000206800F04EFCCEE7CA684968206800F06F
:100FB000F3FC40212068F4E7226801461046F0E780
:100FC00000B585B000210091019102910391006864
:100FD0000B49884212D10B48816941F008018161B7
:100FE0008069694600F0080004904FF4407000905A
:100FF0000220019003900448FFF77EF905B000BD80
:101000000008004000100240000C014070B504468A
:1010100090F83C0000260D4601280FD0012084F8EE
:101020003C006AB1042A1DD0082A2FD00C2A3FD0D8
:101030000126002084F83C00304670BD022070BDBF
:10104000206800F007FC2068816941F00801816197
:101050002068816921F004018161206881692A6921
:10106000114311E0206800F01DFC2068816941F403
:10107000006181612068816921F48061816120685B
:1010800081692A6941EA02218161D2E7206800F082
:1010900035FC2068C16941F00801C1612068C1695F
:1010A00021F00401C1612068C1692A69114311E07E
:1010B000206800F04FFC2068C16941F40061C16103
:1010C0002068C16921F48061C1612068C1692A6911
:1010D00041EA0221C161ACE710B5040003D094F8E5
:1010E0003D0010B107E0012010BD002084F83C0055
:1010F000204600F01EF8022084F83D00211D2068E3
:1011000000F04CFB012084F8460084F83E0084F88F
:101110003F0084F8400084F8410084F8420084F8DD
:10112000430084F8440084F8450084F83D00002022
:1011300010BD704710B50446022249B104290ED0F3
:10114000082913D094F84100012816D0012010BDC1
:1011500094F83E000128F9D184F83E200FE094F87D
:101160003F000128F2D184F83F2008E094F84000C5
:101170000128EBD184F8402001E084F841200122CD
:10118000206800F047FB0F492068884203D1426C79
:1011900042F4004242642068884208D0B0F1804F97
:1011A00005D00949884202D00849884204D18168A3
:1011B00001F00701062903D0016841F00101016037
:1011C000002010BD002C0140000400400008004039
:1011D000FEE701684A69D24352050FD46FF480627A
:1011E0004A61002140F8301F202242738173026956
:1011F00042F0040202610173012070470020704731
:101200002DE9F843044600680D46DDE908970168BA
:101210009846164641F4807101604B4600224FF01B
:1012200001112046009700F06BF848B12068006873
:10123000C00502D54FF4007020640320BDE8F88398
:10124000216805F0FE0008613B464A4615492046E4
:1012500000F09EF888B920684169806900903A469C
:101260004946204600F0F2F848B1206C042804D129
:101270002068016841F4007101600120DEE7F5B2E9
:10128000B8F1010F09D02168300A08613A46494691
:10129000204600F0DBF80028E7D120680561002037
:1012A000CCE700000200010070B516460D4604466A
:1012B0001EE02046FFF78DFF08B1012070BD681CBD
:1012C00016D0FFF70FF9801BA84200D885B9206817
:1012D0004069C04340070BD5002044F8300F20215F
:1012E0006173A073216941F0200121612073E4E75B
:1012F00020684069C0434007DBD4002070BD000077
:101300002DE9F047984617460D460446C1F30746B7
:10131000DDF820902AE000BFB8F1FF3F26D0FFF7AC
:10132000E1F8A0EB0901414502D8B8F1000F1DD149
:101330002068012E16D0806925EA00000004000C08
:1013400012D00020B84211D1002044F8300F2021E3
:101350006173A073216941F0200121612073012094
:10136000BDE8F0874069E7E70120EBE72068012E40
:101370000AD0806925EA00000004000C06D0002095
:10138000B842C9D00020EBE74069F3E70120F7E756
:101390002DE9F047984616460D4604464FF00009E1
:1013A0004FF0200AC1F3074723E020684069C0439B
:1013B000400515D42068016841F40071016021687E
:1013C0006FF480604861C4F8309084F83DA084F8E0
:1013D0003E90216C41F00401216484F83C9021E0AE
:1013E000701C06D0FFF77EF8A0EB0800B04203D8CF
:1013F00016B1012F1FD021E02068012F15D0806980
:1014000025EA00000004000C18D000BF44F8309F0B
:1014100084F80DA084F80E90216941F0200121612B
:1014200084F80C900120BDE8F087406925EA0000AF
:101430000004000CEAD12068406901E0206880695E
:1014400025EA00000004000CAFD1ECE770B51646A9
:101450000D4604461EE02046FFF7BBFE08B1012002
:1014600070BD681C16D0FFF73DF8801BA84200D85D
:1014700085B920684069C04300060BD5002044F8B8
:10148000300F20216173A073216941F02001216197
:101490002073E4E720684069C0430006DBD40020E5
:1014A00070BD000030B585B000241C480094019444
:1014B00002940394816941F010018161816901F016
:1014C00010010491816941F020018161816901F07D
:1014D00020010491816941F004018161816901F079
:1014E00004010491816941F00801816180690C4D1A
:1014F00000F008000490012280212846FEF7ECFF4E
:10150000802000900120CDE901040220039069466B
:101510002846FEF7F1FE05B030BD00000010024085
:101520000008014010B58EB0002407940894099477
:101530000A940B941C2168460C94FEF765FE224821
:10154000204901604721C0E9011444F61F61C0E948
:1015500003148461FFF784FC08B172B6FEE74FF410
:101560008050079007A91848FFF7BCFC08B172B675
:10157000FEE71548FFF7B0FD08B172B6FEE70B9421
:101580000BA911480C94FFF737FC08B172B6FEE7BF
:101590006020CDE900040294082269460A480494B8
:1015A000FFF734FD08B172B6FEE70C226946064823
:1015B000FFF72CFD08B172B6FEE70348FFF700FD08
:1015C0000EB010BD00080040CC030020FEE7FEE78F
:1015D00070B5002404F1B000C0B200F087F800201C
:1015E00000F084F8102000F081F80025002000F0C1
:1015F0008FF86D1CEDB2802DF8D3641CE4B2082C7A
:10160000E8D370BD2DE9F05F9846DDE90A9A1746E8
:10161000834600240D4615E02946584600F026F87A
:101620005E460BE019F80400BAF1000F01D0C04388
:10163000C0B2641C00F06CF8761CF6B2BE42F1D366
:101640006D1CEDB24545E7D3BDE8F09F70B5C820ED
:10165000FEF740FE044D0024285D00F047F8641CAE
:10166000E4B2172CF8D370BD1000002010B504466A
:10167000B031C8B200F03AF8102040EA141000F07F
:1016800035F804F00F00BDE8104000F02FB800005E
:101690002DE9F0411E4615460F4680460024FFF70F
:1016A000E5FF114800EB8515285D0EB1C043C0B2BF
:1016B00000F02EF8641CE4B2102CF5D37F1CF9B2B4
:1016C0004046FFF7D3FF002405EB040090F820000C
:1016D0000EB1C043C0B200F01BF8641CE4B2102C81
:1016E000F2D3BDE8F0810000BE1A000801B584B055
:1016F00001214FF4807204A88DE807000B460022F8
:1017000078210248FEF7B8FF05B000BD780300203D
:1017100001B584B001214FF4807204A88DE8070060
:101720000B46402278210248FEF7A6FF05B000BD17
:101730007803002070477047FFF764B830B58FB06A
:1017400028216846FEF760FD14210AA8FEF75CFD1B
:1017500001210804CDE9001000240294022504911F
:10176000CDE907504FF4E01009906846FFF7A0F963
:1017700008B172B6FEE70F20CDE90A054FF480608C
:10178000CDE90C4002210AA80E94FFF7C5F8002805
:1017900001D072B6FEE70FB030BD7047F0B50268F9
:1017A000194B1A4C1A4D4FF08047984205D0B84259
:1017B00003D0A04201D0A84203D122F070064A68AB
:1017C0003243984205D0B84203D0A04201D0A8428B
:1017D00003D122F44074CA6822434C6922F080028B
:1017E000224302608A68C2620A688262984201D11A
:1017F00009690163012141610169C90703D00169D8
:1018000021F001010161F0BD002C01400004004005
:101810000008004010B501F01F030121046A99403F
:101820008C430462016A9A401143016210BD10B5F5
:10183000846842EA032224F47F440A4322438260FC
:1018400010BD826822F070020A4342F007018160F5
:101850007047000030B5036A026A22F0010202629A
:101860004268846924F073050C682C4323F0020558
:101870008B682B430A4DA8420BD123F00805CB6897
:1018800022F440722B434D6923F0040315438A6907
:101890002A434260846149684163036230BD0000AD
:1018A000002C014030B5026A036A23F01003036282
:1018B000436884690D6824F4E64444EA05248D688D
:1018C00022F0200242EA05120B4DA8420ED1CD684B
:1018D00022F0800242EA05124D6923F4406343EA94
:1018E00085038D6922F0400243EA850343608461E9
:1018F00049688163026230BD002C014030B5036A43
:10190000026A22F4807202624268C46923F400739E
:1019100024F073050C682C438D6843EA05230C4DB5
:10192000A8420ED1CD6823F4006343EA05234D6934
:1019300022F4405242EA05128D6923F4806342EAA0
:1019400005124260C4614968C163036230BD000092
:10195000002C014030B5046A026A22F4805202620F
:101960004268C3690D6823F4E64343EA05238D68A2
:1019700024F4005444EA0534064DA84204D14D69CC
:1019800022F4804242EA85124260C36149680164E0
:10199000046230BD002C014010B5036A046A24F0D3
:1019A00001040462846924F0F00444EA021423F080
:1019B0000A020A438461026210BD10B5036A046A18
:1019C00024F010040462846923F0A00324F470441A
:1019D00044EA023243EA01118261016210BDFEE76E
:1019E0000907090E002804DB00F1E02080F800144C
:1019F000704700F00F0000F1E02080F8141D7047E0
:101A00001CB5FEF707FFFFF799FEFFF74BFDFFF749
:101A100089FD1D481B49002401601C49C0E90114CF
:101A20004FF48041C0E9034144618461C4610462B0
:101A3000FEF75EFD08B172B6FEE713480021543090
:101A4000FFF778FBFFF702FEFFF7C2FD1048CDE974
:101A500000040021062380220846FFF7D3FD00235F
:101A6000082206212C20FFF713FE0023092206215D
:101A70003C20FFF70DFE00230A2206214C20FFF731
:101A800007FEFEE70054004078030020A086010016
:101A900027000020010202030405060708090A0BBB
:101AA0000C0D0E0F101000000000000000000102DD
:101AB0000304060708090000000001020304402295
:101AC0001408F40200F80808FF0808F800000000F5
:101AD00000000000000000000000000000000844BA
:101AE00082413F00206321213F2129336000000013
:101AF00000000000000000000000000000000808D6
:101B0000E8292A2EE80808CC0A0BE80C0800000097
:101B100000000000000000000000000000000000C5
:101B2000FF0949897F00000F40807F00000000000E
:101B30000000000000000000000000000000404223
:101B4000CC000808FF080808FF088C080000000007
:101B50000000000000000000000000000000402025
:101B60001F2041514F4141417F4141612000000010
:101B700000000000000000000000000000000080E5
:101B8000601C20C000FF0080601C20C0000000001E
:101B900000000000000000000000000000004140C4
:101BA00044444444447F454444464460400000006B
:101BB0000000000000000000000000000000020221
:101BC00002020202FE02224282820203020000009E
:101BD0000000000000000000000000000000000005
:101BE00000000000FF0000000001000000000000F5
:101BF0000000000000000000000000000000804025
:101C000020F807F8888888FF888888FC080000008A
:101C100000000000000000000000000000000000C4
:101C200000FF001F080808FF0808081F0000000048
:101C30000000000000000000000000000000F000B4
:101C4000FF04F414FF14F414E827B42CE00000009F
:101C50000000000000000000000000000000000084
:101C6000FF100905FF0509809F403F409F000000CD
:101C7000000000000000000000000000000000FE66
:101C80002222FF027A4A7ECA4A7E4A7B0200000074
:101C90000000000000000000000000000000403FC5
:101CA0000282FF02828A562322524E8202000000E4
:101CB0000000000000000000000000000000101004
:101CC00010FF905008080808F808080C08000000E9
:101CD00000000000000000000000000000000242C0
:101CE000817F0000000040807F00000000000000B5
:101CF00000000000000000000000000000001010C4
:101D000010FF905002C23E020242827F0200000099
:101D1000000000000000000000000000000002427F
:101D2000817F000201FE4242424242FF0200000067
:101D3000000000000000000000000000000000FCA7
:101D40000404FE04146404FC4422338200000000F6
:101D50000000000000000000000000000000001F64
:101D600008081F010141817F0101010101000000FC
:101D70000000000000000000000000000000000063
:101D8000A01D0008000000207803000028010008C2
:101D9000A81E000878030020000700008401000846
:101DA0003201821013127A17AED580A83FD30011EA
:101DB0001E40A1C8DA1281CFD9F1DB40A4A68D1450
:101DC000AF680980C0E0F070783818010752787069
:101DD00070E0C0801C3C7C7859ACC0C0805C2EF0A8
:101DE000FE1F0303C7312CC0E0F80123F0C00F1918
:101DF00001030F3EFEF0B41A80497901B95259200F
:101E00001921F6E070787C3C2D0101030701720274
:101E10007C1FFFE03D2C070F1F012B0F074105140E
:101E2000E0F0FF1F1C383C3E225D07030101B6397C
:101E3000537E0F1F3E38304829011921E13809E04F
:101E4000F07838381C1C0C01B119907E0E1C181843
:101E500030011E38181C1E0F40013A496488081CC6
:101E60001C383878F0E0FA012E2E3E7870E0C00180
:101E70005F6070783E0E3C0E19C6022C3E092E762D
:101E8000017F1808C642FFFF222201011AFF042128
:101E90002A4210200A20F0584F414050DFCF15FF52
:081EA000C0C0FF124000000069
:04000005080000ED02
:00000001FF
